:1000000012C019C018C017C016C015C014C013C044
:1000100012C011C010C00FC00EC00DC00CC00BC06C
:100020000AC009C008C011241FBECFE5D4E0DEBF5E
:10003000CDBF02D028C0E4CFB99A18BA88B38F5F79
:1000400088BB2FE986E891E0215080409040E1F79D
:1000500000C0000088B38F5F88BB2FE986E891E07D
:10006000215080409040E1F700C0000088B38F5FCE
:1000700088BB2FE986E891E0215080409040E1F76D
:0A00800000C00000DACFF894FFCFB3
:00000001FF
